{
  "_format": "hh-sol-artifact-1",
  "contractName": "SkillChain",
  "sourceName": "contracts/SkillChain.sol",
  "abi": [
    {
      "inputs": [],
      "stateMutability": "nonpayable",
      "type": "constructor"
    },
    {
      "anonymous": false,
      "inputs": [
        {
          "indexed": true,
          "internalType": "uint256",
          "name": "id",
          "type": "uint256"
        },
        {
          "indexed": false,
          "internalType": "string",
          "name": "certificateHash",
          "type": "string"
        },
        {
          "indexed": false,
          "internalType": "string",
          "name": "studentHash",
          "type": "string"
        },
        {
          "indexed": true,
          "internalType": "address",
          "name": "issuer",
          "type": "address"
        }
      ],
      "name": "CertificateIssued",
      "type": "event"
    },
    {
      "anonymous": false,
      "inputs": [
        {
          "indexed": true,
          "internalType": "uint256",
          "name": "id",
          "type": "uint256"
        },
        {
          "indexed": true,
          "internalType": "address",
          "name": "revoker",
          "type": "address"
        }
      ],
      "name": "CertificateRevoked",
      "type": "event"
    },
    {
      "anonymous": false,
      "inputs": [
        {
          "indexed": true,
          "internalType": "address",
          "name": "wallet",
          "type": "address"
        },
        {
          "indexed": false,
          "internalType": "string",
          "name": "name",
          "type": "string"
        }
      ],
      "name": "InstitutionRegistered",
      "type": "event"
    },
    {
      "anonymous": false,
      "inputs": [
        {
          "indexed": true,
          "internalType": "address",
          "name": "wallet",
          "type": "address"
        },
        {
          "indexed": false,
          "internalType": "bool",
          "name": "active",
          "type": "bool"
        }
      ],
      "name": "InstitutionStatusChanged",
      "type": "event"
    },
    {
      "inputs": [],
      "name": "admin",
      "outputs": [
        {
          "internalType": "address",
          "name": "",
          "type": "address"
        }
      ],
      "stateMutability": "view",
      "type": "function"
    },
    {
      "inputs": [
        {
          "internalType": "uint256",
          "name": "",
          "type": "uint256"
        }
      ],
      "name": "certificateExists",
      "outputs": [
        {
          "internalType": "bool",
          "name": "",
          "type": "bool"
        }
      ],
      "stateMutability": "view",
      "type": "function"
    },
    {
      "inputs": [
        {
          "internalType": "uint256",
          "name": "",
          "type": "uint256"
        }
      ],
      "name": "certificates",
      "outputs": [
        {
          "internalType": "uint256",
          "name": "id",
          "type": "uint256"
        },
        {
          "internalType": "string",
          "name": "certificateHash",
          "type": "string"
        },
        {
          "internalType": "string",
          "name": "studentHash",
          "type": "string"
        },
        {
          "internalType": "address",
          "name": "issuer",
          "type": "address"
        },
        {
          "internalType": "uint256",
          "name": "issuedAt",
          "type": "uint256"
        },
        {
          "internalType": "bool",
          "name": "revoked",
          "type": "bool"
        }
      ],
      "stateMutability": "view",
      "type": "function"
    },
    {
      "inputs": [
        {
          "internalType": "address",
          "name": "",
          "type": "address"
        }
      ],
      "name": "institutions",
      "outputs": [
        {
          "internalType": "string",
          "name": "name",
          "type": "string"
        },
        {
          "internalType": "address",
          "name": "wallet",
          "type": "address"
        },
        {
          "internalType": "bool",
          "name": "active",
          "type": "bool"
        }
      ],
      "stateMutability": "view",
      "type": "function"
    },
    {
      "inputs": [
        {
          "internalType": "address",
          "name": "_wallet",
          "type": "address"
        }
      ],
      "name": "isInstitutionActive",
      "outputs": [
        {
          "internalType": "bool",
          "name": "",
          "type": "bool"
        }
      ],
      "stateMutability": "view",
      "type": "function"
    },
    {
      "inputs": [
        {
          "internalType": "uint256",
          "name": "_id",
          "type": "uint256"
        },
        {
          "internalType": "string",
          "name": "_certificateHash",
          "type": "string"
        },
        {
          "internalType": "string",
          "name": "_studentHash",
          "type": "string"
        }
      ],
      "name": "issueCertificate",
      "outputs": [],
      "stateMutability": "nonpayable",
      "type": "function"
    },
    {
      "inputs": [
        {
          "internalType": "address",
          "name": "_wallet",
          "type": "address"
        },
        {
          "internalType": "string",
          "name": "_name",
          "type": "string"
        }
      ],
      "name": "registerInstitution",
      "outputs": [],
      "stateMutability": "nonpayable",
      "type": "function"
    },
    {
      "inputs": [
        {
          "internalType": "uint256",
          "name": "_id",
          "type": "uint256"
        }
      ],
      "name": "revokeCertificate",
      "outputs": [],
      "stateMutability": "nonpayable",
      "type": "function"
    },
    {
      "inputs": [
        {
          "internalType": "address",
          "name": "_wallet",
          "type": "address"
        },
        {
          "internalType": "bool",
          "name": "_active",
          "type": "bool"
        }
      ],
      "name": "setInstitutionStatus",
      "outputs": [],
      "stateMutability": "nonpayable",
      "type": "function"
    },
    {
      "inputs": [
        {
          "internalType": "address",
          "name": "_newAdmin",
          "type": "address"
        }
      ],
      "name": "transferAdmin",
      "outputs": [],
      "stateMutability": "nonpayable",
      "type": "function"
    },
    {
      "inputs": [
        {
          "internalType": "uint256",
          "name": "_id",
          "type": "uint256"
        }
      ],
      "name": "verifyCertificate",
      "outputs": [
        {
          "internalType": "bool",
          "name": "isValid",
          "type": "bool"
        },
        {
          "internalType": "string",
          "name": "certificateHash",
          "type": "string"
        },
        {
          "internalType": "string",
          "name": "studentHash",
          "type": "string"
        },
        {
          "internalType": "address",
          "name": "issuer",
          "type": "address"
        },
        {
          "internalType": "uint256",
          "name": "issuedAt",
          "type": "uint256"
        },
        {
          "internalType": "bool",
          "name": "revoked",
          "type": "bool"
        }
      ],
      "stateMutability": "view",
      "type": "function"
    }
  ],
  "bytecode": "0x608060405234801561001057600080fd5b50600080546001600160a01b03191633179055611424806100326000396000f3fe608060405234801561001057600080fd5b50600436106100a95760003560e01c806365f8d2391161007157806365f8d2391461015e578063663b3e221461018157806375829def146101a6578063b2d9767f146101b9578063dbb03d16146101db578063f851a440146101ee57600080fd5b806306f5497e146100ae5780631692a942146100c35780631f6b05f4146100f15780632f183086146101045780633e92cfd114610117575b600080fd5b6100c16100bc366004610f30565b610219565b005b6100d66100d1366004610f30565b6103d0565b6040516100e896959493929190610f8f565b60405180910390f35b6100c16100ff36600461104b565b61060d565b6100c161011236600461109e565b610812565b61014e6101253660046110da565b6001600160a01b031660009081526001602081905260409091200154600160a01b900460ff1690565b60405190151581526020016100e8565b61014e61016c366004610f30565b60036020526000908152604090205460ff1681565b61019461018f366004610f30565b610928565b6040516100e8969594939291906110fc565b6100c16101b43660046110da565b610a7c565b6101cc6101c73660046110da565b610b28565b6040516100e893929190611115565b6100c16101e9366004611148565b610be2565b600054610201906001600160a01b031681565b6040516001600160a01b0390911681526020016100e8565b60008181526003602052604090205460ff1661028b5760405162461bcd60e51b815260206004820152602660248201527f536b696c6c436861696e3a20436572746966696361746520646f6573206e6f7460448201526508195e1a5cdd60d21b60648201526084015b60405180910390fd5b6000818152600260205260409020600581015460ff16156103015760405162461bcd60e51b815260206004820152602a60248201527f536b696c6c436861696e3a20436572746966696361746520697320616c726561604482015269191e481c995d9bdad95960b21b6064820152608401610282565b60038101546001600160a01b031633148061032657506000546001600160a01b031633145b6103905760405162461bcd60e51b815260206004820152603560248201527f536b696c6c436861696e3a204e6f7420617574686f72697a656420746f207265604482015274766f6b65207468697320636572746966696361746560581b6064820152608401610282565b60058101805460ff19166001179055604051339083907f325c62e70cfaa61cf0709d9607ea9d8451b235297c4b47c65ff6a6449c9faca490600090a35050565b600081815260036020526040812054606090819083908190819060ff1661041f575050604080516020808201835260008083528351918201909352828152919550935091508390508080610604565b6000600260008981526020019081526020016000206040518060c001604052908160008201548152602001600182018054610459906111c2565b80601f0160208091040260200160405190810160405280929190818152602001828054610485906111c2565b80156104d25780601f106104a7576101008083540402835291602001916104d2565b820191906000526020600020905b8154815290600101906020018083116104b557829003601f168201915b505050505081526020016002820180546104eb906111c2565b80601f0160208091040260200160405190810160405280929190818152602001828054610517906111c2565b80156105645780601f1061053957610100808354040283529160200191610564565b820191906000526020600020905b81548152906001019060200180831161054757829003601f168201915b505050918352505060038201546001600160a01b03908116602080840191909152600484015460408085019190915260059094015460ff9081161515606094850152928501519091166000908152600191829052928320015460a0840151939450600160a01b900416911580156105d85750815b90508083602001518460400151856060015186608001518760a001519850985098509850985098505050505b91939550919395565b6000546001600160a01b031633146106375760405162461bcd60e51b8152600401610282906111fc565b6001600160a01b03831661069c5760405162461bcd60e51b815260206004820152602660248201527f536b696c6c436861696e3a20496e76616c696420696e737469747574696f6e206044820152651dd85b1b195d60d21b6064820152608401610282565b806106e95760405162461bcd60e51b815260206004820181905260248201527f536b696c6c436861696e3a204e616d652063616e6e6f7420626520656d7074796044820152606401610282565b604051806060016040528083838080601f01602080910402602001604051908101604052809392919081815260200183838082843760009201829052509385525050506001600160a01b03861660208084018290526001604094850181905291835252208151819061075b90826112b7565b506020820151600190910180546040938401511515600160a01b026001600160a81b03199091166001600160a01b03938416171790559051908416907f73a52c071d4a02996481449bf1ad04d8f24559a7ec51210c4ec5e43d3baee881906107c690859085906113a0565b60405180910390a2604051600181526001600160a01b038416907f0fadc7e86c3af145bbdd3ce051029cc14e95637a403cf79a8ad3ab177fff77c19060200160405180910390a2505050565b6000546001600160a01b0316331461083c5760405162461bcd60e51b8152600401610282906111fc565b6001600160a01b0382811660009081526001602081905260409091200154166108b65760405162461bcd60e51b815260206004820152602660248201527f536b696c6c436861696e3a20496e737469747574696f6e206e6f7420726567696044820152651cdd195c995960d21b6064820152608401610282565b6001600160a01b038216600081815260016020819052604091829020018054841515600160a01b0260ff60a01b19909116179055517f0fadc7e86c3af145bbdd3ce051029cc14e95637a403cf79a8ad3ab177fff77c19061091c90841515815260200190565b60405180910390a25050565b6002602052600090815260409020805460018201805491929161094a906111c2565b80601f0160208091040260200160405190810160405280929190818152602001828054610976906111c2565b80156109c35780601f10610998576101008083540402835291602001916109c3565b820191906000526020600020905b8154815290600101906020018083116109a657829003601f168201915b5050505050908060020180546109d8906111c2565b80601f0160208091040260200160405190810160405280929190818152602001828054610a04906111c2565b8015610a515780601f10610a2657610100808354040283529160200191610a51565b820191906000526020600020905b815481529060010190602001808311610a3457829003601f168201915b505050506003830154600484015460059094015492936001600160a01b039091169290915060ff1686565b6000546001600160a01b03163314610aa65760405162461bcd60e51b8152600401610282906111fc565b6001600160a01b038116610b065760405162461bcd60e51b815260206004820152602160248201527f536b696c6c436861696e3a20496e76616c69642061646d696e206164647265736044820152607360f81b6064820152608401610282565b600080546001600160a01b0319166001600160a01b0392909216919091179055565b600160205260009081526040902080548190610b43906111c2565b80601f0160208091040260200160405190810160405280929190818152602001828054610b6f906111c2565b8015610bbc5780601f10610b9157610100808354040283529160200191610bbc565b820191906000526020600020905b815481529060010190602001808311610b9f57829003601f168201915b505050600190930154919250506001600160a01b0381169060ff600160a01b9091041683565b3360009081526001602081905260409091200154600160a01b900460ff16610c725760405162461bcd60e51b815260206004820152603c60248201527f536b696c6c436861696e3a204f6e6c792061637469766520696e73746974757460448201527f696f6e732063616e20706572666f726d207468697320616374696f6e000000006064820152608401610282565b60008581526003602052604090205460ff1615610ce35760405162461bcd60e51b815260206004820152602960248201527f536b696c6c436861696e3a20436572746966696361746520494420616c72656160448201526864792065786973747360b81b6064820152608401610282565b82610d455760405162461bcd60e51b815260206004820152602c60248201527f536b696c6c436861696e3a20436572746966696361746520686173682063616e60448201526b6e6f7420626520656d70747960a01b6064820152608401610282565b80610da95760405162461bcd60e51b815260206004820152602e60248201527f536b696c6c436861696e3a2053747564656e74206964656e746966696572206360448201526d616e6e6f7420626520656d70747960901b6064820152608401610282565b6040518060c0016040528086815260200185858080601f016020809104026020016040519081016040528093929190818152602001838380828437600092019190915250505090825250604080516020601f860181900481028201810190925284815291810191908590859081908401838280828437600092018290525093855250503360208085019190915242604080860191909152606090940183905289835260028152929091208351815591830151600183019150610e6b90826112b7565b5060408201516002820190610e8090826112b7565b506060820151600380830180546001600160a01b039093166001600160a01b0319909316929092179091556080830151600483015560a0909201516005909101805491151560ff1992831617905560008781526020929092526040918290208054909116600117905551339086907f8c20b0cf6918222cb96805a5a2d1c93264e0570b0bc8fd27ea0c5b4f71b79cd190610f219088908890889088906113bc565b60405180910390a35050505050565b600060208284031215610f4257600080fd5b5035919050565b6000815180845260005b81811015610f6f57602081850181015186830182015201610f53565b506000602082860101526020601f19601f83011685010191505092915050565b861515815260c060208201526000610faa60c0830188610f49565b8281036040840152610fbc8188610f49565b6001600160a01b0396909616606084015250506080810192909252151560a0909101529392505050565b80356001600160a01b0381168114610ffd57600080fd5b919050565b60008083601f84011261101457600080fd5b50813567ffffffffffffffff81111561102c57600080fd5b60208301915083602082850101111561104457600080fd5b9250929050565b60008060006040848603121561106057600080fd5b61106984610fe6565b9250602084013567ffffffffffffffff81111561108557600080fd5b61109186828701611002565b9497909650939450505050565b600080604083850312156110b157600080fd5b6110ba83610fe6565b9150602083013580151581146110cf57600080fd5b809150509250929050565b6000602082840312156110ec57600080fd5b6110f582610fe6565b9392505050565b86815260c060208201526000610faa60c0830188610f49565b6060815260006111286060830186610f49565b6001600160a01b0394909416602083015250901515604090910152919050565b60008060008060006060868803121561116057600080fd5b85359450602086013567ffffffffffffffff8082111561117f57600080fd5b61118b89838a01611002565b909650945060408801359150808211156111a457600080fd5b506111b188828901611002565b969995985093965092949392505050565b600181811c908216806111d657607f821691505b6020821081036111f657634e487b7160e01b600052602260045260246000fd5b50919050565b60208082526036908201527f536b696c6c436861696e3a204f6e6c792061646d696e6973747261746f72206360408201527530b7103832b93337b936903a3434b99030b1ba34b7b760511b606082015260800190565b634e487b7160e01b600052604160045260246000fd5b601f8211156112b257600081815260208120601f850160051c8101602086101561128f5750805b601f850160051c820191505b818110156112ae5782815560010161129b565b5050505b505050565b815167ffffffffffffffff8111156112d1576112d1611252565b6112e5816112df84546111c2565b84611268565b602080601f83116001811461131a57600084156113025750858301515b600019600386901b1c1916600185901b1785556112ae565b600085815260208120601f198616915b828110156113495788860151825594840194600190910190840161132a565b50858210156113675787850151600019600388901b60f8161c191681555b5050505050600190811b01905550565b81835281816020850137506000828201602090810191909152601f909101601f19169091010190565b6020815260006113b4602083018486611377565b949350505050565b6040815260006113d0604083018688611377565b82810360208401526113e3818587611377565b97965050505050505056fea2646970667358221220265715d9cfca0489c4c387beeb8910ff01e99979b9c0fa87202cbddc355a1d8764736f6c63430008140033",
  "linkReferences": {},
  "deployedLinkReferences": {}
}